:100000000C94DC1D0C94151E0C94151E0C94151EDE
:100010000C94D1990C94D1990C94D1990C94D199B8
:100020000C94151E0C94151E0C94151E0C94151E84
:100030000C94151E0C94A7830C94151E0C94151E7D
:100040000C948A820C94151E0C942DBE0C94151ED3
:100050000C94C4500C94BA500C94151E0C94151E9C
:100060000C94151E0C94151E0C94151E0C94151E44
:100070000C94151E0C94151E0C94151E0C94151E34
:100080000C94151E0C94151E0C94151E4E414E49D1
:100090004E495459494E46CDCCCC3D0AD7233C1746
:1000A000B7D13877CC2B329595E6241FB14F0A0093
:1000B0000020410000C84200401C4620BCBE4CCA83
:1000C0001B0E5AAEC59D7400407A10F35A00A07200
:1000D0004E18090010A5D4E80000E8764817000083
:1000E000E40B54020000CA9A3B000000E1F5050051
:1000F0000080969800000040420F000000A086019A
:10010000000000102700000000E803000000006469
:1001100000000000000A00000000000100000000D4
:10012000002C76D888DC674F0823DFC1DFAE59E1A9
:10013000B1B796E5E3E453C63AE651997696E8E618
:10014000C28426EB898C9B62ED407C6FFCEFBC9CEB
:100150009F40F2BAA56FA5F490055A2AF75C936BFD
:100160006CF9676DC11BFCE0E40D47FEF520E6B5B8
:1001700000D0ED902E0300943577050080841E0892
:100180000000204E0A000000C80C333333330F98B0
:100190006E12831141EF8D2114893BE65516CFFE77
:1001A000E6DB18D1844B381BF77C1D901DA4BBE403
:1001B00024203284725E228100C9F124ECA1E53D45
:1001C00027434F4D4D554E49434154494F4E0044EE
:1001D000525952554E004552524F525300494E46C5
:1001E0004F004543484F00D0A1D0B4D0B5D0BBD0CC
:1001F000B0D0B9D182D0B520D181D0B1D180D0BE1C
:10020000D18100D09FD0A0D098D09DD0A2D095D041
:10021000A020D09ED0A1D0A2D090D09DD09ED09230
:10022000D09BD095D09D0025533A20255300D0A3D4
:10023000D091D098D0A2D09E2E20005072696E74BA
:1002400065722068616C7465642E206B696C6C2823
:10025000292063616C6C6564210A006563686F3AEC
:10026000004572726F723A004F4646004F4E004290
:10027000696C696E656172204C6576656C696E6744
:1002800020477269643A0A00477269642070726F8D
:1002900062696E6720646F6E652E0A0069646C6522
:1002A0000A00206F662000706F696E7420004D6137
:1002B0006E75616C2047323920004D616E75616C3E
:1002C000204732392061626F727465640A00202809
:1002D00044525952554E2900473239204175746FA6
:1002E00020426564204C6576656C696E67003F202E
:1002F000284C2C522C462C4229206F7574206F6696
:1003000020626F756E64732E0A003F28562965724D
:10031000626F7365206C6576656C20696D706C61C9
:10032000757369626C652028302D34292E0A0042CD
:100330006164205A2076616C75650A004E6F2062F8
:10034000696C696E65617220677269640A00204495
:100350000020204D32303020530020284469736142
:10036000626C6564293A0046696C616D656E742043
:1003700073657474696E67730020204D32303120CC
:1003800058004D617820416363656C6572617469E2
:100390006F6E2028756E6974732F733229002020C8
:1003A0004D3230332058004D6178206665656472A7
:1003B000617465732028756E6974732F732900202A
:1003C000520020204D323034205000416363656C70
:1003D00065726174696F6E2028756E6974732F730E
:1003E00032292028503C7072696E742D61636365F8
:1003F0006C3E20523C726574726163742D6163635C
:10040000656C3E20543C74726176656C2D6163634B
:10041000656C3E2900204A00205400205300202013
:100420004D323035204200416476616E6365642050
:1004300028423C6D696E5F7365676D656E745F74AD
:10044000696D655F75733E20533C6D696E5F6665CF
:100450006564726174653E20543C6D696E5F7472B0
:100460006176656C5F66656564726174653E204A9D
:100470003C6A756E635F6465763E29002044002007
:10048000490020204D333031205000486F74656E94
:1004900064205049440020440020490020204D336E
:1004A000303420500042656420504944002E0A0038
:1004B000F50903380038FD37206E6F7420646973C6
:1004C00061626C65642E205368617265642077698F
:1004D0007468004D323453256C6454256C640047B5
:1004E00039322E394525730047314625640047319E
:1004F0005A257346363030004731582573592573D5
:100500004633303030004D3130365025695325693F
:10051000004D313039532569004D32303044257358
:10052000004739322E395A2573004D343230532565
:10053000635A257300473238523058590047315AB0
:10054000257346363030004739322E395A2573002C
:100550004739322E394530004D3130395325690045
:100560004D313930532569004D343230205330201D
:100570005A3000203B200020204D343133205300DE
:10058000506F7765722D6C6F7373207265636F7631
:100590006572790020496E76616C696420657874B3
:1005A00072756465722000D0A1D0BED0BD2E2E2EF3
:1005B000004D65736820706F696E74206F757420CC
:1005C0006F662072616E67650A00D09FD180D0BED1
:1005D000D0B4D0BED0BBD0B6D0B8D182D18C2E2E64
:1005E0002E00616C736F20656E61626C6564290A10
:1005F00000D09DD0B5D18220D0B4D0B2D0B8D0B682
:10060000D0B5D0BDD0B8D18F2E00456E64206669BC
:100610006C65206C6973740A00426567696E2066B8
:10062000696C65206C6973740A004E6F206D656497
:1006300069610A00286E6F2066696C652900437540
:100640007272656E742066696C653A2000534420AE
:100650007072696E74696E67206279746520004EED
:100660006F74205344207072696E74696E670A005B
:100670002569730025696D20256973002569682047
:1006800025696D2025697300256964202569682026
:1006900025696D2025697300256979202569642005
:1006A0002569682025696D20256973005072696E7F
:1006B000742074696D653A20006F6B006F66660088
:1006C000E201DD01D601CF01C10144454255473A5F
:1006D000004D3131332053004A6F72617320416EF7
:1006E000657420413820706C7573204F46462E008B
:1006F000434F4E4649475F4558504F5254004D4571
:1007000041545041434B00434F4F4C45525F544579
:100710004D5045524154555245004348414D424584
:10072000525F54454D504552415455524500424147
:1007300042595354455050494E470041524353008B
:100740004D4F54494F4E5F4D4F444553005448451B
:10075000524D414C5F50524F54454354494F4E0007
:10076000455854454E4445445F4D3230004355533F
:10077000544F4D5F4649524D574152455F55504C7D
:100780004F4144004C464E5F5752495445004C4F30
:100790004E475F46494C454E414D45004155544FEB
:1007A0005245504F52545F53445F53544154555334
:1007B0000053445F575249544500524550454154F7
:1007C000004D554C54495F564F4C554D45005344D0
:1007D000434152440050524F4D50545F5355505076
:1007E0004F525400484F53545F414354494F4E5F5A
:1007F000434F4D4D414E445300454D455247454EA4
:1008000043595F50415253455200434153455F4C59
:10081000494748545F4252494748544E4553530054
:10082000544F47474C455F4C494748545300534F3A
:100830004654574152455F504F5745520042554923
:100840004C445F50455243454E54004C4556454C30
:10085000494E475F44415441005A5F50524F424510
:100860000052554E4F5554004155544F4C45564536
:100870004C005052494E545F4A4F420050524F472D
:1008800052455353004155544F5245504F52545FB7
:1008900054454D50004155544F5245504F52545FAE
:1008A000504F5300564F4C554D4554524943004507
:1008B0004550524F4D0042494E4152595F46494CB6
:1008C000455F5452414E53464552005345524941AB
:1008D0004C5F584F4E5F584F4646004649524D5761
:1008E0004152455F4E414D453A4D61726C696E20F3
:1008F000322E302E392E37202844656320333120A4
:10090000323032332030343A31353A3234292053C0
:100910004F555243455F434F44455F55524C3A67EC
:1009200069746875622E636F6D2F4D61726C696EAC
:100930004669726D776172652F4D61726C696E20C8
:1009400050524F544F434F4C5F56455253494F4EB0
:100950003A312E30204D414348494E455F5459505D
:10096000453A4A6F72617320416E657420413820A8
:10097000706C75732045585452554445525F434F2F
:10098000554E543A3120555549443A6365646532B1
:100990006132662D343161322D343734382D39626D
:1009A00031322D6335356336326633363766660A43
:1009B000002F2F004D31343520533C696E6465782B
:1009C0003E206F7574206F662072616E6765202807
:1009D000302D31290A003F4A206F7574206F662040
:1009E00072616E67652028302E303120746F2030A0
:1009F0002E33290A002058003B200020204D61782A
:100A00003A2000200020204D696E3A2000203B2033
:100A10000020204D32313120530046523A0020460A
:100A20006C6F773A200064697300656E0043290A91
:100A30000061626C656420286D696E2074656D705C
:100A40002000436F6C642065787472756465732050
:100A500061726520004F46460A0046616465204881
:100A600065696768742000426564204C6576656C32
:100A7000696E6720004661696C656420746F20654B
:100A80006E61626C6520426564204C6576656C69B8
:100A90006E670A00496E76616C6964206D657368E3
:100AA0002E0A004D34323120696E636F72726563B5
:100AB0007420706172616D65746572207573616711
:100AC000650A004D65736820706F696E74206F75DC
:100AD00074206F662072616E67650A00D0A1D0BC79
:100AE000D0B5D189D0B5D0BDD0B8D18F20D0BFD1AD
:100AF00080D0B8D0BCD0B5D0BDD0B5D0BDD18B00E2
:100B00004572723A20546F6F206661722100546FF3
:100B10006F206661722066726F6D20726566657205
:100B2000656E636520706F696E740A0045455052AA
:100B30004F4D2064697361626C65640A004D3834FE
:100B400000446F6E65207072696E74696E6720660E
:100B5000696C650A004D3737004D333100496E76B8
:100B6000616C69642065787472756465720A00202E
:100B7000204D323036205800486F6D65206F666614
:100B8000736574004361703A0020573A00D09ED1DB
:100B900085D0BBD0B0D0B6D0B4D0B5D0BDD0B8D051
:100BA000B52E2E2E0045312025530020573A00D077
:100BB0009ED185D0BBD0B0D0B6D0B4D0B5D0BDD04A
:100BC000B8D0B520D181D182D0BED0BBD0B02E2E2E
:100BD0002E00D09DD0B0D0B3D180D0B5D0B220D12E
:100BE00081D182D0BED0BBD0B02E2E2E0023646522
:100BF00066696E652044454641554C545F0000626D
:100C00006564004B6420004B6920004B702000207D
:100C100066696E6973686564212050757420746814
:100C200065206C617374204B702C204B6920616EC1
:100C300064204B6420636F6E7374616E74732066FE
:100C4000726F6D2062656C6F7720696E746F2043E0
:100C50006F6E66696775726174696F6E2E680A00DF
:100C6000504944204175746F74756E65002066614B
:100C7000696C6564212074696D656F75740A005034
:100C80004944204175746F74756E65002066616912
:100C90006C6564212054656D706572617475726550
:100CA00020746F6F20686967680A005049442041CA
:100CB00075746F74756E6500504944204379636C98
:100CC00065730025532025692F256900204B643A60
:100CD0002000204B693A2000204B703A200020432E
:100CE0006C617373696320504944200A00204E6F81
:100CF000206F76657273686F6F740A002054753ABE
:100D00002000204B753A2000206D61783A200020A9
:100D10006D696E3A200020643A2000206269617398
:100D20003A2000D09DD0B0D0B3D180D0B5D0B22E73
:100D30002E2E002073746172740A005049442041C1
:100D400075746F74756E6500206661696C656421E9
:100D50002054656D706572617475726520746F6F73
:100D600020686967680A00504944204175746F74AF
:100D7000756E6500D090D0B2D182D0BED0BFD0BE4B
:100D8000D0B4D0B1D0BED18020504944002066619B
:100D9000696C6564212042616420686561746572D4
:100DA0002069640A00504944204175746F74756E5F
:100DB00065004572723A207574663820666F6E74ED
:100DC000206E6F7420696E697469616C697A6564FC
:100DD0002E004572723A207574663820666F6E7404
:100DE000206E6F7420696E697469616C697A6564DC
:100DF0002E004572723A207574663820666F6E74E4
:100E0000206E6F7420696E697469616C697A6564BB
:100E10002E00D0A1D182D0BED0BB2C20200943000F
:100E2000D09AD0B0D0BCD0B5D180D0B02C0943007E
:100E3000080090A85C0130130800ABAD3800F81230
:100E40000800AFCF900168110800D1D11E004A11EF
:100E50002568753A25303268750025303268753A54
:100E600025303268750025303268752725303268A4
:100E70007500256875642025303268753A25303252
:100E80006875002020202020202000202020200025
:100E9000657272001FE0201020102010102010201A
:100EA0002010201030300840048003001FE03FF085
:100EB0003FF03FF01FE01FE03FF03FF03FF00FC07A
:100EC000078003003FFFF038007030FC3020FC103A
:100ED0002078102030102C00D02E31D02F7BD02F36
:100EE0007BD02E31D02C00D020301020781020FC68
:100EF0001030FC303800703FFFF03FFFF0380070DA
:100F00003186302387102787902F87D02F03D0205A
:100F100030102078102078102030102F03D02F8729
:100F2000D02787902387103186303800703FFFF03C
:100F30001FFFF81FFFF804104002082002082004D9
:100F4000104008208010410010410008208004104B
:100F5000400000001FFFF81FFFF8D09FD0B5D187D9
:100F6000D0B0D182D18C20D0BED182D0BCD0B5D06F
:100F7000BDD0B5D0BDD0B0004D32350050617573D5
:100F8000696E672E2E2E004D323400D094D0B8D02A
:100F9000B0D0BC2E20D184D0B8D0BBD0B0D0BC2E25
:100FA00000D092D18BD0BAD0BB00D092D0BAD0BBF7
:100FB000004520D0B220D0BCD0BCC2B300D09FD05E
:100FC000B5D180D0B5D0BCD0B5D189D0B5D0BDD049
:100FD000B8D0B520D0BCD0B8D0BD00D0A1D0BAD048
:100FE000BED1802ED0BCD0B8D0BD00D0A1D0BAD058
:100FF000BED1802ED0BCD0B0D0BAD181204000D09C
:10100000A3D181D0BAD0BED1802ED0BCD0B0D0BABE
:10101000D181204500D0A3D181D0BAD0BED1802EBD
:10102000D0BCD0B0D0BAD181204000D0A3D181D0E3
:10103000BAD0BED1802ED0BFD183D182D0B5D188D5
:101040002E00D0A3D181D0BAD0BED1802ED0B2D1C3
:1010500082D18FD0B3D0B8D0B22E00D0A3D181D05E
:10106000BAD0BED180D0B5D0BDD0B8D0B500402068
:10107000D188D0B0D0B32FD0BCD0BC00D094D18018
:10108000D183D0B3D0B8D0B520D0BDD0B0D181D12C
:1010900082D180D0BED0B9D0BAD0B8004D34323869
:1010A00000D0A4D0B8D0BBD0B0D0BCD0B5D0BDD1CA
:1010B0008200D0A8D0B0D0B3D0BED0B22FD0BCD098
:1010C000BC00D09ED182D0BAD0BBD0BED0BD2E2025
:1010D000D183D0B7D0BBD0B000D0A3D181D0BAD00B
:1010E000BED180D0B5D0BDD0B8D0B52C20D0BCD02A
:1010F000BC2FD1813200D0A1D0BAD0BED180D0BE19
:10110000D181D182D18C2C20D0BCD0BC2FD18100F8
:10111000D0A3D181D182D0B0D0BDD0BED0B22ED19B
:1011200081D0BCD0B5D1892ED0B4D0BED0BCD0B087
:1011300000D09AD0BED0BDD184D0B8D0B3D183D1A5
:1011400080D0B0D186D0B8D18F00000C0F00FE0047
:1011500000000000D1D100070000000507070600CD
:101160000050007088F08070000C0F00FE0000003E
:101170000000AFCF0008FE0000050707060000785A
:101180008888782848880505050600007008788852
:10119000780507070600007080F0888888700505CC
:1011A00005060000F088F088F0050505060000F847
:1011B000808080800506060600FF30505050F88879
:1011C0000505050600007088F0807005050506001D
:1011D00000A8702070A805050506000070883088FA
:1011E000700505050600008898A8C8880508080647
:1011F00000008870008898A8C888040505060100CA
:1012000090A0C0A090050505060000384848488811
:1012100005050506000088D8A8888805050506008C
:10122000008888F888880505050600007088888889
:1012300070050505060000F88888888805070706F8
:1012400000FEF0888888F0808005050506000070A3
:1012500088808870050505060000F82020202005FC
:1012600007070600FE88888888780870050909063F
:1012700000FE202070A8A8A8702020050505060003
:101280000088502050880507070600FE9090909037
:10129000F80808050505060000888878080805058F
:1012A00005060000A8A8A8A8F80507070600FEA8DC
:1012B000A8A8A8F80808050505060000C040704861
:1012C000700505050600008888C8A8C8040505063D
:1012D00001008080E090E0040505060100E0107048
:1012E00010E005050506000090A8E8A89004050593
:1012F0000601007090705090000C0F00FE0000007E
:101300000000ABAD000700000005070706000088DD
:101310008888C8A8A8C8040707060100808080E064
:101320009090E0050707060000708808780888702C
:10133000000C0F00FE000000000090A8000AFE0054
:1013400000050707060000708888F8888888050768
:1013500007060000F08080F08888F0050707060087
:1013600000F08888F08888F0050707060000F880FC
:1013700080808080800508080600FF305050505063
:1013800050F888050707060000F88080F08080F894
:10139000050707060000A8A8702070A8A805070781
:1013A00006000070880870088870050707060000AE
:1013B000888898A8C88888050A0A060000887000EE
:1013C000888898A8C888880507070600008890A024
:1013D000C0A09088050707060000384848484848DC
:1013E0008805070706000088D8A888888888050728
:1013F00007060000888888F888888805070706009F
:101400000070888888888870050707060000F888BB
:101410008888888888050707060000F08888F0809B
:10142000808005070706000070888080808870052E
:101430000707060000F820202020202005070706C7
:101440000000888888887808700507070600002053
:1014500070A8A8A8702005070706000088885020FB
:101460005088880509090600FE909090909090F8A9
:101470000808050707060000888888780808080516
:101480000707060000A8A8A8A8A8A8F8000C0F0045
:10149000FE07022503BB01FFFE0AFE08FE05080841
:1014A00006000040F0C888889878100508080600F3
:1014B00000C0F88888888888F8050505060001209E
:1014C00030F830200508080600002070F8202020A1
:1014D00020E00509090600FF2070A8A8B8888870D8
:1014E00020070505070001D86C366CD805090906E8
:1014F00000FFF8A88888888888A8F8050A0A0600E6
:10150000FE205050505088A8A8887003030306009E
:101510000340A040FFFFFFFFFFFFFFFFFFFFFFFFB4
:10152000FFFFFFFFFFFFFFFFFFFF0000000605FFBB
:10153000010707060200808080808000800303038B
:10154000060105A0A0A005060606000050F85050B0
:10155000F8500509090600FF2070A8A07028A8709F
:1015600020050707060000C8C81020409898050706
:101570000706000040A0A040A890680103030602EF
:10158000058080800309090601FF2040408080809B
:101590004040200309090601FF80404020202040F0
:1015A000408005070706000020A8702070A82005CD
:1015B00005050600012020F820200203030601FF94
:1015C000C04080050101060003F802020206010086
:1015D000C0C0050707060000081010204040800525
:1015E0000707060000708898A8C8887003070706D8
:1015F000010040C040404040E00507070600007081
:101600008808102040F8050707060000F808103089
:1016100008887005070706000010305090F8101079
:10162000050707060000F880F0080888700507071E
:10163000060000304080F08888700507070600002B
:10164000F808101020202005070706000070888881
:101650007088887005070706000070888878081071
:1016600060020505060100C0C000C0C002060606F3
:1016700001FFC0C000C040800305050601012040F5
:10168000804020050303060002F800F80305050664
:101690000101804020408005070706000070881087
:1016A000202000200507070600007088B8A8B88031
:1016B00070050707060000708888F8888888050785
:1016C00007060000F04848704848F0050707060084
:1016D0000070888080808870050707060000F04849
:1016E00048484848F0050707060000F88080F08069
:1016F00080F8050707060000F88080F080808005EC
:101700000707060000708880809888700507070624
:101710000000888888F8888888030707060100E0A9
:101720004040404040E00507070600003810101018
:101730001090600507070600008890A0C0A0908860
:10174000050707060000808080808080F805070775
:1017500006000088D8A88888888805070706000042
:101760008888C8A8988888050707060000708888B8
:1017700088888870050707060000F08888F0808058
:101780008005070706000070888888A8906805070C
:1017900007060000F08888F0A0908805070706007B
:1017A0000070888070088870050707060000F82020
:1017B00020202020200507070600008888888888C8
:1017C0008870050707060000888888885050200523
:1017D000070706000088888888A8A850050707061C
:1017E0000000888850205088880507070600008878
:1017F000885020202020050707060000F808102048
:101800004080F80309090601FFE080808080808025
:1018100080E0050707060000804040201010080304
:1018200009090601FFE020202020202020E00503F8
:10183000030600052050880501010600FEF8030399
:1018400003060105804020050505060000700878A4
:1018500088780507070600008080F0888888F005F2
:1018600005050600007080808870050707060000E7
:10187000080878888888780505050600007088F0D3
:101880008070050707060000304840E040404005F2
:1018900007070600FE708888887808700507070625
:1018A00000008080F08888888803070706010040D0
:1018B00000C0404040E00409090601FE100030105D
:1018C000101010906005070706000080808890E0E7
:1018D0009088030707060100C04040404040E005F3
:1018E0000505060000D0A8A8A8A805050506000063
:1018F000B0C888888805050506000070888888704B
:101900000507070600FEF0888888F0808005070735
:101910000600FE7888888878080805050506000016
:10192000B0C880808005050506000078807008F04A
:101930000507070600002020F820202018050505CF
:1019400006000088888898680505050600008888D4
:101950008850200505050600008888A8A8500505C0
:101960000506000088502050880507070600FE88FD
:10197000888850204080050505060000F8102040AA
:10198000F80309090601FF20404040804040402004
:101990000109090602FF80808080808080808003AA
:1019A00009090601FF804040402040404080050377
:1019B0000306000248A890FFFFFFFFFFFFFFFFFFA5
:1019C000FFFFFFFFFFFFFFFFFFFFFFFFFFFFFFFF27
:1019D000FFFFFFFFFFFFFFFF0000000605FF0107FD
:1019E00007060200800080808080800507070600CF
:1019F000FF2070A8A0A87020050707060000304847
:101A000040E04048B0050505060000A8508850A8F1
:101A10000507070600008850F820F8202001070776
:101A20000602008080800080808004080806010093
:101A300070806090906010E0030101060107A0062D
:101A400007070600007884B4A4B48478030505066B
:101A5000010460A06000E00505050600002850A014
:101A60005028050303060001F808080301010601D8
:101A700003E00607070600007884B4A4A484780570
:101A80000101060007F80404040601056090906057
:101A90000507070600002020F8202000F8030505B0
:101AA00006010440A02040E0030505060104C02013
:101AB0004020C003030306010520408005070706F8
:101AC00000FE88888898E88080050808060000786D
:101AD000E8E8E868282828020202060203C0C003DA
:101AE00002020601FE20C003050506010440C040B5
:101AF00040E003050506010540A04000E00505059E
:101B0000060000A0502850A0050A0A06000040C0A8
:101B100048506050B0507810050A0A06000040C0D6
:101B200048506050A8081038050A0A060000C02076
:101B30004830E050B050781005070706000020003C
:101B40002020408870050A0A0600004020007088A6
:101B500088F8888888050A0A060000102000708826
:101B600088F8888888050A0A0600002050007088D6
:101B700088F8888888050A0A06000068B00070881E
:101B800088F8888888050909060000500070888850
:101B9000F8888888050A0A06000020502070888886
:101BA000F888888805070706000078A0A0F0A0A0A4
:101BB000B80509090600FE70888080808870106072
:101BC000050A0A060000402000F88080F08080F8B6
:101BD000050A0A060000102000F88080F08080F8D6
:101BE000050A0A060000205000F88080F08080F886
:101BF0000509090600005000F88080F08080F80395
:101C00000A0A060100804000E04040404040E003F6
:101C10000A0A060100204000E04040404040E00346
:101C20000A0A06010040A000E04040404040E003B6
:101C30000909060100A000E04040404040E00507DF
:101C400007060000704848E8484870050A0A060080
:101C50000068B0008888C8A8988888050A0A060025
:101C60000040200070888888888870050A0A06006D
:101C70000010200070888888888870050A0A06008D
:101C80000020500070888888888870050A0A06003D
:101C90000068B00070888888888870050909060087
:101CA0000050007088888888887005050506000146
:101CB00088502050880509090600FF087098A8A8D8
:101CC000A8C87080050A0A0600004020008888889D
:101CD00088888870050A0A06000010200088888815
:101CE00088888870050A0A060000205000888888C5
:101CF000888888700509090600005000888888884F
:101D0000888870050A0A0600001020008888502084
:101D100020202004070706010080E0909090E080DA
:101D2000050707060000708890A09088B005080895
:101D30000600004020007008788878050808060032
:101D40000010200070087888780508080600002038
:101D50005000700878887805080806000068B00010
:101D6000700878887805070706000050007008782A
:101D700088780508080600002050207008788878C8
:101D8000050505060000702870A078050707060005
:101D9000FE708880887010600508080600004020EA
:101DA000007088F0807005080806000010200070A0
:101DB00088F080700508080600002050007088F048
:101DC000807005070706000050007088F0807003DF
:101DD0000808060100804000C0404040E0030808B9
:101DE000060100204000C0404040E0030808060112
:101DF0000040A000C0404040E0030707060100A0EB
:101E000000C0404040E0050909060000502050088D
:101E1000788888887005080806000068B000B0C897
:101E20008888880508080600004020007088888897
:101E3000700508080600001020007088888870056A
:101E4000080806000020500070888888700508087F
:101E500006000068B00070888888700507070600D3
:101E60000050007088888870050505060001200074
:101E7000F800200505050600007898A8C8F00508B8
:101E80000806000040200088888888700508080639
:101E90000000102000888888887005080806000067
:101EA00020500088888888700507070600005000C9
:101EB0008888888870050A0A0600FE102000888835
:101EC00088502040800509090600FE8080F088883F
:101ED00088F080800509090600FE50008888885037
:101EE0002040805045542D4700504C41003F00D0C9
:101EF000A1D0BBD0B5D0B4D183D18ED189D0B8D048
:101F0000B920D183D0B3D0BED0BB00D093D0BED146
:101F100082D0BED0B2D0BE00D094D0B0D0BBD18CD5
:101F2000D188D0B500D092D18BD180D0B0D0B2D0F2
:101F3000BDD0B8D0B2D0B0D0BDD0B8D0B520D0B31D
:101F4000D0BED182D0BED0B2D0BE2100D094D0B20B
:101F5000D0B8D0B6D0B5D0BDD0B8D0B520D0BFD0D5
:101F6000BE205A00473239563100D0A1D0BBD0B57F
:101F7000D0B4D183D18ED189D0B0D18F20D182D0AD
:101F8000BED187D0BAD0B0002569202F202575009A
:101F9000473239563100D09DD0B0D0B6D0BCD0B881
:101FA000D182D0B520D187D182D0BED0B1D18B2003
:101FB000D0BDD0B0D187D0B0D182D18C00D09DD14E
:101FC00083D0BBD0B5D0B2D0BED0B520D0BFD0BEAC
:101FD000D0BBD0BED0B6D0B5D0BDD0B8D0B500D073
:101FE00092D18BD180D0BED0B2D0BDD18FD182D191
:101FF0008C20D183D0B3D0BBD18B00D092D18BD1E8
:1020000081D0BED182D0B020D181D0BFD0B0D0B4E9
:10201000D0B000D092D18BD0BAD0BB00D092D0BA81
:10202000D0BB00D092D18BD180D0B0D0B2D0BDD0B7
:10203000B8D0B2D0B0D0BDD0B8D0B520D181D18287
:10204000D0BED0BBD0B000D092D18BD180D0BED08A
:10205000B2D0BDD18FD182D18C20D181D182D0BEDE
:10206000D0BB00D094D0B2D0B8D0B6D0B5D0BDD00F
:10207000B8D0B500D0A1D182D0BED0BB2C202009D1
:102080004300D0A1D0BED0BFD0BBD0BE2C200943CE
:1020900000D09AD183D0BBD0B5D18000D09AD0BE29
:1020A000D0BDD184D0B8D0B3D183D180D0B0D186C7
:1020B000D0B8D18F00D09DD0B020D0B1D0B0D0B7A3
:1020C000D0BED0B2D18BD0B520D0BFD0B0D180D0CF
:1020D000B0D0BC2E00D09DD0B0D0B3D180D0B5D080
:1020E000B2202420D0BFD180D0B0D0B2D0BAD0B0EE
:1020F00000D092D18BD0BAD0BB00D092D0BAD0BB96
:1021000000D092D0BED181D181D182D0B0D0BDD00B
:10211000BED0B2D0B5D0BDD0B8D0B520D181D0B16D
:10212000D0BED18F00D094D180D183D0B3D0B8D0DD
:10213000B520D0BDD0B0D181D182D180D0BED0B9B0
:10214000D0BAD0B800D09ED181D0BDD0BED0B2D050
:10215000BDD0BED0B520D0BCD0B5D0BDD18E004D45
:102160003130303000D09ED181D182D0B0D0BDD0BE
:10217000BED0B2D0B8D182D18C20D0BFD0B5D1875B
:10218000D0B0D182D18C00D09FD180D0BED0B4D07D
:10219000BED0BBD0B6D0B8D182D18C20D0BFD0B504
:1021A000D187D0B0D182D18C00D092D0BED181D194
:1021B00081D182D0B0D0BDD0BED0B2D0B5D0BDD04C
:1021C000B8D0B520D181D0B1D0BED18F003F00D0E2
:1021D0009DD0B0D0B7D0B0D0B400D0A1D182D0BE05
:1021E000D0BF004D323200D0A3D181D182D0B0D047
:1021F000BDD0BED0B2D0B8D182D18C20534420D033
:10220000BAD0B0D180D182D183004D323100D09F7D
:10221000D0B5D187D0B0D182D18C20D18120534488
:1022200020D0BAD0B0D180D182D18B00D09ED181C4
:10223000D0B2D0BED0B1D0BED0B4D0B8D182D18CC3
:1022400020534420D0BAD0B0D180D182D18300D0E5
:102250009AD0BED0BDD184D0B8D0B3D183D180D0F4
:10226000B0D186D0B8D18F00D0A2D0B5D0BCD0BF6D
:10227000D0B5D180D0B0D182D183D180D0B000D0C0
:1022800094D0B2D0B8D0B6D0B5D0BDD0B8D0B5000B
:10229000D09FD180D0BED0B4D0BED0BBD0B6D0B845
:1022A000D182D18C20D0BFD0B5D187D0B0D182D14E
:1022B0008C00D09DD0B0D181D182D180D0BED0B899
:1022C000D182D18C00D09ED181D182D0B0D0BDD06E
:1022D000BED0B2D0B8D182D18C20D0BFD0B5D187FA
:1022E000D0B0D182D18C00D09FD0B0D183D0B7D024
:1022F000B020D0BFD0B5D187D0B0D182D0B800D077
:1023000093D0BBD0B0D0B2D0BDD18BD0B920D18DBD
:10231000D0BAD180D0B0D0BD003F00D09DD0B0D1D8
:1023200087D0B0D0BBD0BE20D0BFD0B5D187D0B081
:10233000D182D0B800D09ED182D0BCD0B5D0BDD093
:10234000B000D09FD0B5D187D0B0D182D18C00431E
:10235000616E6E6F7420656E746572207375626451
:1023600069723A200002202E2E000120D09ED0B1AA
:10237000D0BDD0BED0B2D0B8D182D18C00D09ED149
:1023800081D0BDD0BED0B2D0BDD0BED0B520D0BCE3
:10239000D0B5D0BDD18E002100D0A1D0BED0BFD04D
:1023A000BBD0BE20D0BDD0B520D0BDD0B0D0B3D131
:1023B00080D0B5D182D0BE00D09DD0B0D0B7D0B043
:1023C000D0B400D09FD180D0BED0B4D0BED0BBD0CE
:1023D000B6D0B8D182D18C00D0ADD0BAD181D18263
:1023E000D180D183D0B4D0B5D18000D094D0B2D038
:1023F000B8D0B6D0B5D0BDD0B8D0B500D092D18BC2
:10240000D0BAD0BBD18ED187D0B8D182D18C20D0D8
:10241000B4D0B2D0B8D0B3D0B0D182D0B5D0BBD0C8
:10242000B8004D383400D092D18BD180D0B0D0B22A
:10243000D0BDD0B8D0B2D0B0D0BDD0B8D0B520D1FA
:1024400081D182D0BED0BBD0B000D09FD0B0D180DF
:10245000D0BAD0BED0B2D0BAD0B02058595A004766
:10246000323800D09ED181D0BDD0BED0B2D0BDD048
:10247000BED0B520D0BCD0B5D0BDD18E00D09DD0BF
:10248000B0D0B3D180D0B5D0B2202420D181D182B8
:10249000D0BED0BB00D09DD0B0D0B3D180D0B5D00D
:1024A000B2202420D181D0BED0BFD0BBD0BE00D0BE
:1024B000A2D0B5D0BCD0BFD0B5D180D0B0D182D160
:1024C00083D180D0B000E91EE31ED09ED185D0BB61
:1024D000D0B0D0B6D0B4D0B5D0BDD0B8D0B500D083
:1024E0009FD180D0B5D0B4D0BDD0B0D0B3D180D042
:1024F000B5D0B2202400D09AD183D0BBD0B5D18042
:1025000000D0A1D182D0BED0BB2C2020094300D066
:10251000A1D0BED0BFD0BBD0BE2C20094300D09EDE
:10252000D181D0BDD0BED0B2D0BDD0BED0B520D02C
:10253000BCD0B5D0BDD18E00D09FD0BED182D0BE90
:10254000D0BA00D09AD183D0BBD0B5D18000D0A171
:10255000D182D0BED0BB2C2020094300D0A1D0BE58
:10256000D0BFD0BBD0BE2C20094300D0A1D0BAD060
:10257000BED180D0BED181D182D18C00D09ED181FC
:10258000D0BDD0BED0B2D0BDD0BED0B520D0BCD092
:10259000B5D0BDD18E006F70656E0054524947476B
:1025A00045524544003A20007A5F6D696E00795FBC
:1025B0006D696E00785F6D696E005265706F727440
:1025C000696E6720656E6473746F702073746174D4
:1025D00075730A0020746F6F206C6F6E67206578CA
:1025E00074727573696F6E2070726576656E74654E
:1025F000640A0020636F6C64206578747275736977
:102600006F6E2070726576656E7465640A000000F6
:10261000D0C10000C0C0000000005761726E696E3A
:10262000673A20486F6D696E672042756D7020446F
:10263000697669736F72203C20310A00020204003F
:1026400000A343008097430000B9430000A040006E
:1026500000A0400000004000000001000000010058
:10266000008000555555000000400033333300AA68
:10267000AA2A004992240000002000C7711C00997A
:10268000991900D1451700555515003BB113002489
:1026900049120011111100000010000F0F0F00E38C
:1026A000380E0043790D00CCCC0C00C3300C00E890
:1026B000A20B0064210B00AAAA0A00703D0A009D2B
:1026C000D80900427B090092240900DCD308008865
:1026D0008808001042080000000800F0C1070087C9
:1026E00087070075500700711C07003EEB0600A12C
:1026F000BC06006990060066660600703E06006132
:1027000018060017F4050074D105005BB00500B28F
:10271000900500627205005555050078390500B82E
:102720001E0500050505004EEC040087D40400A139
:10273000BD040090A7040049920400C17D0400EE8E
:10274000690400C7560400444404005C32040008D5
:1027500021040041100400000004003FF00300F8D1
:10276000E0030026D20300C3C30300CCB503003A44
:10277000A803000A9B0300388E0300C08103009F5A
:10278000750300D0690300505E03001D530300343D
:10279000480300913D03003333030016290300383A
:1027A0001F030097150300300C0300030303000B05
:1027B000FA020049F10200BAE802005CE002002DD2
:1027C000D802002DD0020059C80200B0C00200316A
:1027D000B90200DAB10200AAAA0200A0A30200BC5A
:1027E0009C0200FA9502005C8F0200DF88020082E2
:1027F000820200457C020027760200277002004317
:102800006A02007C640200D05E02003F590200C8E8
:10281000530200FFFDFCFAF8F6F4F2F0EEECEAE900
:10282000E7E5E3E1E0DEDCDAD9D7D5D4D2D0CFCD0D
:10283000CBCAC8C7C5C3C2C0BFBDBCBAB9B7B6B49E
:10284000B3B2B0AFADACAAA9A8A6A5A4A2A1A09E00
:102850009D9C9A99989795949392908F8E8D8B8A40
:102860008988878684838281807F7E7D7B7A797860
:1028700077767574737271706F6E6D6C6B6A696860
:1028800067666564636261605F5E5D5C5B5A595850
:10289000585756555453525150504F4E4D4C4B4A29
:1028A0004A4948474646454443424241403F3E3EEE
:1028B0003D3C3B3B3A3938383736353534333232A4
:1028C0003130302F2E2E2D2C2B2B2A29292827274B
:1028D00026252524232322212120201F1E1E1D1CE6
:1028E0001C1B1B1A19191818171616151514131373
:1028F00012121111100F0F0E0E0D0D0C0C0B0A0AF7
:10290000090908080707060605050404030302026F
:1029100001000000009643008094430000B943008A
:1029200000D0C10000C0C0000000004861726463B4
:102930006F6465642044656661756C7420536574CA
:1029400074696E6773204C6F61646564000000C831
:10295000430000C843000048420000C8410000A0F6
:10296000420000A0420000C8430000BE42D0070061
:1029700000D0070000640000001027000020286D30
:102980006D2900203B204C6576656C696E672000E0
:1029900020204D3432302053004175746F20426541
:1029A00064204C6576656C696E67002046002042A5
:1029B0000020480020204D3134352053004D6174F3
:1029C000657269616C2068656174757020706172F0
:1029D000616D657465727300204A002020473239AA
:1029E000205720490020204D3134392043203B20FE
:1029F000556E69747320696E2043656C73697573D5
:102A00000A0054656D706572617475726520556E4B
:102A1000697473002020473231203B004C696E6599
:102A2000617220556E6974730024F4D43050C38EE3
:102A300020C2A24017828B7011127A910D816CD93D
:102A40000AA861E108C7586607615143061E4B5D3D
:102A500005C145A7041A411104093D980371393194
:102A6000034036DB0265339102D4305402802E1DC0
:102A700002632CEE01752AC501B028A00110278140
:102A8000018F2564012B244B01E0223401AC211F6E
:102A9000018D200D01801FFC00841EED00971DDFBD
:102AA00000B81CD200E61BC600201BBC00641AB292
:102AB00000B219A8000A19A0006A189900D117914C
:102AC0000040178B00B516840031167E00B31579CF
:102AD000003A157300C7146F0058146A00EE1366AD
:102AE000008813630025135E00C7125B006C125749
:102AF0000015125400C111510070114F0021114BEB
:102B000000D61049008D10470046104400021042C4
:102B100000C00F4000800F3E00420F3C00060F3BFC
:102B200000CB0E3800930E37005C0E3500270E34B4
:102B300000F30D3200C10D3100900D3000600D2EFC
:102B400000320D2D00050D2C00D90C2B00AE0C29E8
:102B500000850C29005C0C2700350C27000E0C2684
:102B600000E80B2400C40B2400A00B23007D0B23E2
:102B7000005A0B2100390B2100180B2000F80A1F06
:102B800000D90A1E00BB0A1E009D0A1D00800A1DF6
:102B900000630A1C00470A1B002C0A1B00110A1ABA
:102BA00000F7091A00DD091900C4091900AB091959
:102BB00000920917007B091800630917004C0916D9
:102BC0000036091600200916000A091500F5081537
:102BD00000E0081400CC081400B8081400A408147D
:102BE00000900813007D0812006B081300580812AB
:102BF00000460812003408110023081100120811C1
:102C00000001081100F0071000E0071000D00710C5
:102C100000C0071000B0070F00A107100091070EB9
:102C20000083070F0074070F0065070E0057070E9B
:102C30000049070E003B070D002E070E0020070D70
:102C40000013070D0006070D00F9060C00ED060D38
:102C500000E0060C00D4060C00C8060C00BC060CF4
:102C600000B0060C00A4060B0099060C008D060BA4
:102C70000082060B0077060B006C060B0061060A4B
:102C80000057060B004C060A0042060A0038060AE6
:102C9000002E060A0024060A001A060A0010060979
:102CA0000007060A00FD050900F4050900EB050907
:102CB00000E2050900D9050900D0050900C705098A
:102CC00000BE050900B5050800AD050800A5050909
:102CD000009C050800940508008C05080084050880
:102CE000007C050800740508006C050700650508F0
:102CF000005D050700560508004E0507004705075B
:102D0000004005080038050700310507002A0507BF
:102D100000230507001C050600160507000F050720
:102D2000000805060002050700FB040600F504077D
:102D300000EE040600E8040600E2040700DB0406D7
:102D400000D5040600CF040600C9040600C304062B
:102D500000BD040600B7040600B1040500AC04067B
:102D600000A6040600A00405009B040600950405C7
:102D700000900406008A040500850405008004060E
:102D8000007A04050075040500700405006B040555
:102D90000066040500610405005C04050057040595
:102DA00000520405004D04050048040500430405D5
:102DB000003E0404003A0405003504050030040414
:102DC000002C04050027040400230405001E04044D
:102DD000001A04040016040500110404000D040484
:102DE00000090405000404040000040400FC0304BA
:102DF00000F8030400F4030400F0030400EC0304EF
:102E000000E8030400E4030400E0030400DC03041E
:102E100000D8030400D4030400D0030400CC03044E
:102E200000C8030300C503030024F404D9201BC415
:102E30000C5C0E9804C4095F0265077101F405F982
:102E400000FB04B30048048700C103690058035520
:102E50000003034500BE023A008402310053022AF7
:102E6000002902250004022000E4011C00C8011909
:102E700000AF0117009801140084011300710110C4
:102E8000006101100051010E0043010D0036010BDD
:102E9000002B010B0020010B00150109000C01099A
:102EA0000003010800FB000800F3000800EB000726
:102EB00000E4000600DE000600D8000600D200068E
:102EC00000CC000500C7000500C2000500BD0004DD
:102ED00000B9000400B5000400B1000400AD000416
:102EE00000A9000400A5000300A20003009F000445
:102EF000009B00030098000300950002009300036C
:102F000000900003008D0002008B00030088000287
:102F1000008600020084000300810002007F00029E
:102F2000007D0002007B00020079000200770001B2
:102F300000760002007400020072000100710002BD
:102F4000006F0002006D0001006C0002006A0001C9
:102F500000690002006700010066000100650001D1
:102F600000640002006200010061000100600001D5
:102F7000005F0002005D0001005C0001005B0001D9
:102F8000005A0001005900010058000100570001DB
:102F900000560001005500010054000100530000DC
:102FA00000530001005200010051000100500001D7
:102FB000004F0001004E0000004E0001004D0001D6
:102FC000004C0001004B0000004B0001004A0001D2
:102FD00000490001004800000048000100470001CE
:102FE00000460000004600010045000000450001C9
:102FF00000440001004300000043000100420000C3
:1030000000420001004100000041000100400001B9
:10301000003F0000003F0001003E0000003E0001B4
:10302000003D0000003D0001003C0000003C0000AD
:10303000003C0001003B0000003B0001003A0000A2
:10304000003A00010039000000390001003800009A
:103050000038000000380001003700000037000190
:103060000036000000360000003600010035000088
:10307000003500000035000100340000003400007D
:103080000034000100330000003300000033000171
:103090000032000000320000003200010031000068
:1030A000003100000031000100300000003000005D
:1030B00000300001002F0000002F0000002F000052
:1030C000002F0001002E0000002E0000002E000145
:1030D000002D0000002D0000002D0000002D00013B
:1030E000002C0000002C0000002C0000002C00012F
:1030F000002B0000002B0000002B0000002B000123
:10310000002A0000002A0000002A0000002A000116
:10311000002900000029000000290000002900000B
:1031200000290001002800000028000000280000FD
:1031300000280000002800010027000000270000F0
:1031400000270000002700000027000100260000E3
:1031500000260000002600000026000000260001D6
:1031600000250000002500000025000000250000CB
:1031700000250000002500010024000000240000BC
:1031800000240000002400000024000100230000AF
:1031900000230000002300000023000000230000A3
:1031A0000023000000230001002200000022000094
:1031B0000022000000220000002200000022000186
:1031C000002100000021000000210000002100007B
:1031D000002100000021000000210001002000006B
:1031E000002000000020000000200000002000005F
:1031F000002000000020000000200001001F00004F
:10320000001F0000001F0000001F0000001F000042
:10321000001F0000001F0001001E0000001E000033
:10322000001E0000001E00000039300000332500A1
:103230000087190000B00F0000DB080000BD04008B
:1032400000740200003F01000020436F756E74207F
:10325000583A00D0A1D182D0BED0BB2C2020094347
:10326000004531004500626564002C207379737459
:10327000656D2073746F707065642120486561749A
:1032800065725F49443A2000D09ED188D0B8D0B151
:10329000D0BAD0B03A20D0A220D0BCD0B0D0BAD1D1
:1032A000812E004D415854454D5020747269676716
:1032B0006572656400D0A0D0B0D0B7D0BED0B3D115
:1032C00080D0B5D0B220D0BDD0B520D183D0B4D07D
:1032D000B0D0BBD181D18F0048656174696E672021
:1032E0006661696C656400D09ED188D0B8D0B1D0D9
:1032F000BAD0B03A20D0A220D0BCD0B8D0BD2E00D9
:103300004D494E54454D502074726967676572652A
:103310006400D0A3D0A2D095D0A7D09AD09020D0CE
:10332000A2D095D09FD09BD09000546865726D61FB
:103330006C2052756E6177617900202F0020424029
:103340003A0020403A0000002100240027002A0013
:103350007C3C3E5E2B3D3F2F5B5D3B2C2A225C007C
:1033600043616E6E6F74206F70656E20737562645A
:103370006972200053442063617264206F6B0A00FD
:103380006F70656E526F6F74206661696C65640A58
:1033900000766F6C756D652E696E69742066616963
:1033A0006C65640A004E6F20534420636172640AA6
:1033B000000A4D3234004D3233202573002E0A00AE
:1033C0006F70656E206661696C65642C2046696C5F
:1033D000653A200046696C652073656C65637465A9
:1033E000640A002053697A653A200046696C6520BA
:1033F0006F70656E65643A2000454E442053554217
:10340000524F5554494E450A002220706F730022D6
:1034100020706172656E743A2200535542524F55C6
:1034200054494E452043414C4C2074617267657489
:103430003A2200D09FD0B5D180D0B5D0BFD0BED079
:10344000BBD0BD2E20D0B2D18BD0B7D0BED0B2D0A1
:10345000B0004578636565646564206D61782053CC
:103460005542524F5554494E452064657074683A30
:10347000002E0A0044656C6574696F6E2066616990
:103480006C65642C2046696C653A200046696C6561
:103490002064656C657465643A0057726974696E7E
:1034A0006720746F2066696C653A200066726573E8
:1034B0006800646F696E67002066696C653A200079
:1034C0004E6F7720002F6175746F25632E67001093
:1034D00000C90210012C014001220170011801B045
:1034E000010E01F00104015002FA00B002F00030B8
:1034F00003E600D003DC009004D2007005C800A0F1
:1035000006BE000008B400B009AA00D00BA00060FD
:103510000E960060118C000015820020197800C002
:103520001D6E00A0226400B0275A00902C500000AD
:10353000314600E0343C0010383200903A280060F8
:103540003C1E00A03D1400803E0A00203F000020E9
:1035500020506C616E6E6572427566666572427966
:103560007465733A20002046726565204D656D6F65
:1035700072793A200020436F6D70696C65643A205F
:1035800044656320333120323032330A00204C61ED
:10359000737420557064617465643A20323032333C
:1035A0002D30372D3034207C20417574686F723A8D
:1035B00020284D617274696E205A656D616E202DF0
:1035C000205A656D697374722C20416E65742041B8
:1035D0003820506C7573290A004D61726C696E2039
:1035E000322E302E392E370A0020536F66747761E1
:1035F00072652052657365740A00205761746368B0
:10360000646F672052657365740A002042726F7799
:103610006E206F75742052657365740A00204578BA
:103620007465726E616C2052657365740A00506F28
:1036300077657255700A0073746172740A004732BC
:103640003858590A4739310A47312046313030302D
:10365000205A2B32300A473120463530303020593D
:103660003239370A4739300A4D383420582059202A
:1036700045004D31303031006F6B006572726F72F2
:103680002077726974696E6720746F2066696C6553
:103690000A00446F6E6520736176696E6720666903
:1036A0006C652E0A00D0ADD0BDD0B4D181D182D00E
:1036B000BED0BFD18B002553202563202563202554
:1036C0006320256300205A3A0020593A0020583AD6
:1036D00000656E6473746F7073206869743A2000BB
:1036E00000002200250028002B0002020202020234
:1036F0000202040404040404040403030303030394
:10370000030301010101010101010102040810206C
:1037100040800102040810204080010204081020AB
:1037200040808040201008040201D094D0B2D0B86C
:10373000D0B6D0B5D0BDD0B8D0B5202573D0BCD0D0
:10374000BC00302E30323500D094D0B2D0B8D0B6D4
:10375000D0B5D0BDD0B8D0B520302E31D0BCD0BC83
:1037600000D094D0B2D0B8D0B6D0B5D0BDD0B8D0FB
:10377000B52031D0BCD0BC00D094D0B2D0B8D0B637
:10378000D0B5D0BDD0B8D0B5203130D0BCD0BC0081
:10379000D094D0B2D0B8D0B6D0B5D0BDD0B8D0B516
:1037A00020D0BFD0BE20D0BED181D18FD0BC00D020
:1037B000ADD0BAD181D182D180D183D0B4D0B5D1AE
:1037C00080202A00D094D0B2D0B8D0B6D0B5D0BD29
:1037D000D0B8D0B520D0BFD0BE204000D09ED18878
:1037E000D0B8D0B1D0BAD0B020D0BFD0B0D180D076
:1037F000BAD0BED0B2D0BAD0B800FFFFFF2045008B
:10380000205A0020590020204D393220580053748E
:103810006570732070657220756E697400220A00ED
:10382000556E6B6E6F776E20636F6D6D616E643A6F
:10383000202200627573793A207061757365642087
:10384000666F7220696E7075740A00627573793ADA
:103850002070617573656420666F72207573657280
:103860000A00627573793A2070726F6365737369C9
:103870006E670A00534420D0BAD0B0D180D182D034
:10388000B020D0B2D181D182D0B0D0B2D0BBD0B52F
:10389000D0BDD0B0004D31303030530000000001B9
:1038A0000200090A000000000403080700000000ED
:1038B000000000000000000000000000746F6F2096
:1038C0006D75636820696E616374697665207469DB
:1038D0006D65202D2063757272656E7420636F6D47
:1038E0006D616E643A20002121204B494C4C2063CD
:1038F000617573656420627920004D313132205347
:10390000687574646F776E00D09ED0A1D0A2D090FD
:10391000D09DD09ED092D09BD095D09DD09E2E2071
:10392000005072696E7465722073746F7070656494
:103930002064756520746F206572726F72732E201B
:1039400046697820746865206572726F7220616EB6
:103950006420757365204D39393920746F20726584
:1039600073746172742E202854656D706572617471
:103970007572652069732072657365742E205365B6
:103980007420697420616674657220726573746155
:103990007274696E67290A004E6F20436865636B15
:1039A00073756D2077697468206C696E65206E751B
:1039B0006D6265722C204C617374204C696E653A9F
:1039C00020004D3239004E6F20436865636B73757C
:1039D0006D2077697468206C696E65206E756D6204
:1039E00065722C204C617374204C696E653A20001E
:1039F000636865636B73756D206D69736D61746366
:103A0000682C204C617374204C696E653A20004C20
:103A1000696E65204E756D626572206973206E6FE8
:103A200074204C617374204C696E65204E756D6214
:103A300065722B312C204C617374204C696E653A91
:103A400020004D3131300053657269616C20737410
:103A500061747573206D69736D617463680A0053D6
:103A6000442072656164206572726F720A00DB0F18
:103A7000C93F45BCDA3F8FB30240FCF02740569463
:103A80006140FE4B9B4084A5D840E0231841346A36
:103A90005641E859974164DBD5416E271742B4B7C8
:103AA0005542CE1A9742C8AED542B5885A43D4067D
:103AB00084BFA65FA7BF7443E0BF10B11AC01C2C1F
:103AC00058C0E8F697C0B849D6C04E4E17C124D3A7
:103AD00055C1802497C1A0B5D5C1121A17C244AEF2
:103AE00055C2781797C26CACD5C267885AC3207488
:103AF0006F6F206C6F6E6720657874727573696F75
:103B00006E2070726576656E7465640A0020636F5E
:103B10006C6420657874727573696F6E207072655D
:103B200076656E7465640A006F6B0A005265736592
:103B30006E643A2000D0A1D0BDD0B0D187D0B0D033
:103B4000BBD0B020D0BFD0B0D180D0BAD183D0B953
:103B5000202573257325730020453A00205A3A002A
:103B600020593A00583A004A6F72617320416E65DD
:103B70007420413820706C757320D093D0BED182F0
:103B8000D0BED0B22E00D09FD0B5D187D0B0D182D8
:103B9000D18C2E2E2E00D09FD0B5D187D0B0D1821F
:103BA000D18C20D0BDD0B020D0BFD0B0D183D0B781
:103BB000D0B50000A5E386E311241FBECFEFD0E40B
:103BC000DEBFCDBF84B78093D71614BE0FB6F8946E
:103BD000A8958091600088618093600010926000D9
:103BE0000FBE12E0A0E0B1E0E4E8FDEE01E00BBFA3
:103BF00002C007900D92AC32B107D9F726E1ACE2D2
:103C0000B2E001C01D92A73DB207E1F71DE1CBED87
:103C1000DDE104C02197FE010E9413F4CA3DD107E3
:103C2000C9F70E9479E40C94B6F60C9400008F92C8
:103C30009F92AF92BF92CF92DF92EF92FF926B0171
:103C40007C0120E030E0A9010E9464ED87FDC3C043
:103C50006DEB77E386E095E3A70196010E946CF493
:103C60006B017C0120E030E0A9010E9464ED87FF38
:103C7000B7C0C701B601905820E030E040E251E4FF
:103C80000E94C9ED20E030E040E251E40E94C9ED1D
:103C900020E030E040EA50E40E946CF420E030E0A4
:103CA00040E251E40E94E3F40E944BF56B017C0179
:103CB00060E280EAC81686E8D80681E0E806F104EA
:103CC0008CF0C701B60120EA36E841E050E00E94DE
:103CD000F7F3CA01B9012AE030E040E050E00E9469
:103CE000F7F3605D60937D0460E280E1C81687E2CF
:103CF000D806E104F1048CF0C701B60120E137E2F7
:103D000040E050E00E94F7F3CA01B9012AE030E038
:103D100040E050E00E94F7F3605D60937E0460E253
:103D200088EEC81683E0D806E104F1048CF0C701E0
:103D3000B60128EE33E040E050E00E94F7F3CA01FC
:103D4000B9012AE030E040E050E00E94F7F3605D06
:103D500060937F0460E284E6C816D104E104F104B4
:103D60008CF0C701B60124E630E040E050E00E944C
:103D7000F7F3CA01B9012AE030E040E050E00E94C8
:103D8000F7F3605D609380048AE0882E912CA12C6B
:103D9000B12CC701B601A50194010E94F7F36B0194
:103DA000CA01B901A50194010E94F7F3605D609317
:103DB00081048EE28093820480E3C80EC092830463
:103DC0008DE794E0FF90EF90DF90CF90BF90AF90A1
:103DD0009F908F9008956DEB77E386E095EB3CCF55
:103DE00020E030E040E251E4C701B60149CFCF9373
:103DF000DF93EC01CB01BA010E946AED20E030E0D4
:103E000040E251E40E94E3F4688379838A839B83D0
:103E1000DF91CF9108950E946AED20E030E040E20A
:103E200051E40E94E3F403CFCF93DF93EC01CB0185
:103E3000BA010E946AED2AE037ED43E25DE30E9499
:103E4000E3F40E9450F5688379838A839B83DF9132
:103E5000CF910895CF93DF93EC01CB01BA010E947B
:103E60006AED2AE037ED43E25DE30E94E3F4688304
:103E700079838A839B83DF91CF910895CF93DF93DA
:103E8000EC01CB01BA010E946AED688379838A83D1
:103E90009B83DF91CF910895CF93DF93EC01CB010A
:103EA000BA010E946AED20E030E04AE754E40E9443
:103EB000E3F4688379838A839B83DF91CF910895AC
:103EC000FC0184910895FC0180810895FC01A0818A
:103ED000B1811C92A281B3818C918F5F8C930280FF
:103EE000F381E02D90818CE0989F800D1124E4EB0C
:103EF000F3E113AE84AF0895009751F0FC0180E028
:103F00009191992331F0907C9038D1F38F5FF8CF65
:103F100080E00895119800C0000087FD52C01398FA
:103F200000C00000119A00C00000119800C00000FD
:103F300086FD53C0139800C00000119A00C0000015
:103F4000119800C0000085FD46C0139800C0000015
:103F5000119A00C00000119800C0000084FD39C013
:103F6000139800C00000119A00C00000119800C012
:103F7000000083FD2CC0139800C00000119A00C0FF
:103F80000000119800C0000082FD1FC0139800C0FF
:103F90000000119A00C00000119800C0000081FDCF
:103FA00012C0139800C00000119A00C000001198C0
:103FB00000C00000139800C00000119A00C000006B
:103FC0000895139AADCF139AEDCF139AE0CF139AB9
:103FD000D3CF139AC6CF139AB9CF139AACCF90E030
:103FE00080E00895CF93DF93C0911006D091110621
:103FF00081E0CE31D105E4F020E030E040E05FE345
:1040000060910C0670910D0680910E0690910F063E
:104010000E946CF40E944BF56C1B7D0B77FF03C074
:1040200071956195710981E0633071050CF080E054
:10403000DF91CF91089590E080E0089520910206ED
:10404000833021F425FD0CC024FD0CC030E0A90113
:1040500002C0559547958A95E2F7CA018170089587
:1040600081E0089580E008958091EA0384FD0BC00B
:104070008091EC0387FD07C09091ED03937081E080
:1040800019F480E0089581E008952FEB280F2A317C
:1040900008F047C0E22FF0E08091EA039091EB0333
:1040A000A091EC03B091ED0304C0B695A795979548
:1040B00087952A95D2F780FD02C081700895E0535C
:1040C000FC4FE081EE2341F18091100790911107A0
:1040D000E80FF92FF11D808190ED980F9A3030F0A4
:1040E0008E3251F4818180538A3098F4F093C70363
:1040F000E093C60381E008958D3211F08B3249F4CC
:10410000818190ED980F9A3088F38E3211F482817C
:10411000EACFF0E0E0E0EACF1092C7031092C603C6
:10412000E9CF80E00895CF93DF9385E4AEDF882365
:1041300009F188E04091EA035091EB036091EC03B0
:104140007091ED03972F9170C92F90E0D92FCC0F6C
:10415000DD1F71FB222720F930E0220F331F220FD1
:10416000331FC22B67FB442740F9C42B8C2BDF91F4
:10417000CF91089580E0DECF88DF882341F081E091
:104180002091C6033091C703232B09F480E00895E2
:1041900080E090E0A0E8B0E480936A0190936B0126
:1041A000A0936C01B0936D018AED91E00E9472952D
:1041B00080E090E0A0EFB1E480936201909363010E
:1041C000A0936401B09365018093660190936701A9
:1041D000A0936801B0936901E0917704EE0FFF0BA3
:1041E000E655FE4F808191818330910549F18430FD
:1041F0009105D9F1029761F480E090E0A7E8B3E47B
:104200008093620190936301A0936401B093650170
:1042100082EB91E00E94729510926A0110926B01FC
:1042200010926C0110926D018AED91E00E947295DE
:10423000809177048F5F8430ECF480937704089545
:1042400080E090E0A7E8B3E480936201909363017B
:10425000A0936401B0936501809366019093670118
:10426000A0936801B0936901D3CF80E090E0A7E804
:10427000B3E4F2CF109277040895A4E0B0E0E3E451
:10428000F1E20C9444F40E9450F50E9468ED6983B9
:104290007A838B839C83CE0101960E94A99A2496EF
:1042A000E2E00C9460F40E946AED2AE037ED43E20C
:1042B0005DE30E94E3F4E1CFCF92DF92EF92FF92B1
:1042C000CF93DF9300D000D0CDB7DEB76B017C0178
:1042D00020E030E0A9010E9464ED87FD1BC06DEB7A
:1042E00077E386E095E3A70196010E946CF4698369
:1042F0007A838B839C83CE0101960E94A99A0F90AA
:104300000F900F900F90DF91CF91FF90EF90DF9083
:10431000CF9008956DEB77E386E095EBE4CF0E94B4
:104320006AED2AE037ED43E25DE30E94E3F4C4CF97
:104330000E946AEDC1CFCF92DF92EF92FF92CF93AE
:10434000DF9300D000D0CDB7DEB76B017C0120E059
:1043500030E0A9010E9464ED87FD1CC06DEB77E39E
:1043600086E095E3A70196010E946CF469837A8345
:104370008B839C8360E2CE0101960E942C9B0F9060
:104380000F900F900F90DF91CF91FF90EF90DF9003
:10439000CF9008956DEB77E386E095EBE3CF0E9435
:1043A0006AED20E030E04AE754E40E94E3F4C3CF32
:1043B0000C9474860C9474860C9430860C9430861D
:1043C0000C9430860C94308680915601882341F0FD
:1043D000609174047091750441E081E00C9438BAE6
:1043E0000895CF93DF93C0911006D09111062097C6
:1043F00029F160910C0670910D0680910E06909146
:104400000F060E944BF56E5F7F4F24976C177D0758
:10441000ACF47093DE046093DD040E9401BE605A28
:1044200075418F4F9F4F6093DF047093E00480933A
:10443000E1049093E204DF91CF9108951092DF049C
:104440001092E0041092E1041092E204F4CFB0E084
:10445000A0E0EDE2F2E20C943DF46B01E9014A3098
:1044600009F4D5C0453109F081C0DB011296ED9108
:10447000FC91F28096818781149A00C00000E6E2E8
:10448000F0E03197F0F7092F182FEF2CE29420EF8E
:10449000E22230E1B32EBF0CE80188EF3BDD00C023
:1044A000000086E290E00197F0F7BFE1BF1508F445
:1044B0009BC08F2D807780682DDD8E2D2BDD00C079
:1044C000000086E290E00197F0F780E823DD80E0CD
:1044D00021DD00C0000086E290E00197F0F78AEF4E
:1044E00019DD00C0000086E290E00197F0F7005F60
:1044F0001F4F8881807F0EDD89918295807F0ADD44
:10450000C017D107B1F700C0000086E290E0019724
:10451000F0F7F394E0E1EE0EFB10BECF1498D60155
:104520001296ED91FC9180819281980F9283218166
:10453000921708F0BFC194819F5F94839381890F84
:10454000821710F08FEF820F8383458150E0440F74
:10455000551F70E060E0868197810E9470F681E0CF
:10456000CDB7DEB7E9E00C9459F4FEC1FB0102813E
:104570001381423309F4A5C108F4ADC1463409F4EE
:1045800095C1473409F4A2C14B3349F789812B8186
:10459000D80112967C91129713963C91213009F420
:1045A000DFC1233009F0C0C148EF480F582F91E018
:1045B000341708F490E031E0541708F030E0492F48
:1045C000432B61E0571708F460E0462311F493236E
:1045D00031F2FA8030E0F901EA56FE4FD0802E56D3
:1045E0003E4FF901E080B9C180EE8F0D8068807F79
:1045F00091DC8F2D8295807F8DDC00C0000086E2EB
:1046000090E00197F0F780E885DC80E861CF0C9AB4
:1046100014980B9A1398099A119A149A00C00000E2
:1046200086E290E00197F0F788E790E0CEE9DFE0DE
:10463000FE013197F1F70197D9F788EF6BDC00C0E5
:10464000000086E290E00197F0F780E263DC80E012
:1046500061DC00C0000086E290E00197F0F780E0A6
:1046600059DC80E857DC00C0000086E290E001974A
:10467000F0F780E04FDC80E14DDC00C0000086E216
:1046800090E00197F0F7CE010197F1F7CE01019785
:10469000F1F7CE010197F1F7CE010197F1F7CE01C5
:1046A0000197F1F7CE010197F1F7CE010197F1F7EC
:1046B000CE010197F1F7CE010197F1F7CE010197F5
:1046C000F1F7CE010197F1F7CE010197F1F7CE0195
:1046D0000197F1F7CE010197F1F72197F1F780E209
:1046E00019DC80E417DC00C0000086E290E001974E
:1046F000F0F780E20FDC80E60DDC00C0000086E20F
:1047000090E00197F0F7D0E0C0E08C2F80778068D0
:1047100001DC8D2FFFDB00C0000086E290E00197F6
:10472000F0F780E8F7DB80E0F5DB00C0000086E210
:1047300090E00197F0F78AEFEDDB00C0000086E221
:1047400090E00197F0F780E2119800C00000139804
:1047500000C00000119A00C00000119800C00000C5
:10476000139800C00000119A00C00000119800C00A
:104770000000139800C00000119A00C000001198BA
:1047800000C00000139800C00000119A00C0000093
:10479000119800C00000139800C00000119A00C0DA
:1047A0000000119800C00000139800C00000119A8A
:1047B00000C00000119800C00000139800C0000065
:1047C000119A00C00000119800C00000139800C0AA
:1047D0000000119A00C00000119800C0000013985A
:1047E00000C00000119A00C00000119800C0000035
:1047F000139800C00000119A00C00000119800C07A
:104800000000139800C00000119A00C00000119829
:1048100000C00000139800C00000119A00C0000002
:10482000119800C00000139800C00000119A00C049
:104830000000119800C00000139800C00000119AF9
:1048400000C00000119800C00000139800C00000D4
:10485000119A00C00000119800C00000139800C019
:104860000000119A00C0000000C00000E6E2F0E085
:104870003197F0F7815009F067CF88EF4BDB00C02C
:10488000000086E290E00197F0F7CF5FD05FC03282
:1048900009F03BCF80E03EDB80EC3CDB00C0000059
:1048A00086E290E00197F0F7149859CEF8018581DF
:1048B000888355CE80E0CDB7DEB7E9E00C9459F49B
:1048C00053C0B901C8010E9477BE49CED8011196E4
:1048D0008C91888344CE443191F0473109F03FCE2A
:1048E0001882D80112968C911297898315968C9113
:1048F000159781508A8313968C918B8330CED80183
:1049000015964C91159750E0440F551F70E060E0EC
:1049100016968D919C910E9470F6F801128280810A
:104920008150838314821BCE381708F418CE871762
:1049300008F415CEFA80E12CD12C243070F44ACE44
:10494000BE01C8010E9477BE898198819D0D988320
:104950008E0D8983FF0C09F402CEF7FEF6CFF0CF5F
:1049600058E0580F482F23CE2091F403022E000C5C
:10497000330B8217130641F08093F4036CE874E163
:1049800088EB93E10C94C8C00895EF92FF920F93C7
:104990001F93CF93DF93EC018B017A018A859B856E
:1049A0008617970731F0888199810E94C8C01B87BC
:1049B0000A87B701888199810E9430BB2E813F818F
:1049C000820F932F911D9F838E8390E080E0CDB75F
:1049D000DEB7E6E00C945CF4B0E0A0E0E2EFF4E2D5
:1049E0000C943CF4EC017B018A018A859B85861737
:1049F000970731F0888199810E94C8C0FB86EA86BA
:104A000088859985019609F5CC80DA808E81D80E4B
:104A1000A880B980D5015596ED91FC91C501099505
:104A2000C80E780110E0F70121917F0121111FC00C
:104A30008E819F81810F911D9F838E8390E080E006
:104A4000CDB7DEB7EAE00C9458F4EE80FF80B801F1
:104A5000888199810E9430BB8E0D9F2D911D2885E4
:104A600039852817390780F681E090E0E9CF4C2D91
:104A70006D2DC5010E9420C1D80E180FD4CFB0E013
:104A8000A0E0E5E4F5E20C943FF4EC01D62E1CAD79
:104A90000BAD7C0184E0E80EF11CE98DFA8DC701B5
:104AA0000995412F480F2D2D602FC7010E9420C16D
:104AB0009BAD890F8BAF81E090E0CDB7DEB7E7E02B
:104AC0000C945BF4ACE0B0E0E8E6F5E20C943EF464
:104AD000F090EF13E090F0132091F603211112C033
:104AE00042ED5DE06E2D8F2D0E9479C190E080E057
:104AF000F80EF092EF13E092F01399272C96E8E06D
:104B00000C945AF4C090BC13D090BD1328EB33E141
:104B10003A8329832F2D30E03C832B832E2D30E0E8
:104B20003E832D8318861F827A8769871C861B86A1
:104B30000CEE14E29E012F5F3F4F40E65FE1BC01A7
:104B4000C6010E9426B7B60188EB93E10E94C8C057
:104B50008F819885CDCF8091C6039091C703009730
:104B600031F04AE050E070E060E00C948CEB60E0E3
:104B700070E0CB0108958091C6039091C703009720
:104B800031F04AE050E070E060E00C9460EA60E0F0
:104B900070E0CB010895CF93DF93EB01EDDA88232A
:104BA00011F0E9DFEB01CE01DF91CF910895E3DF52
:104BB00097FD0AC0E0DF6F3F71058105910509F09F
:104BC0002CF4D9DF862F089580E008958FEF0895A3
:104BD000CF93C62FD1DA882311F0E9DFC82F8C2FAD
:104BE000CF9108958091C6039091C703892B39F026
:104BF000DEDF91E0811101C090E0892F089591E0FE
:104C0000FCCFCF93DF93C82FD62FB6DA882321F0BD
:104C1000E9DFDF91CF9108958C2F37DA8111F9CF39
:104C20008D2FF7CFA8DFCB010895CF93DF93EB0152
:104C3000A3DA882311F0F6DFEC01CE01DF91CF91EA
:104C400008950F931F93CF938091C6039091C7034C
:104C50000097D9F0FC018F01C1912C2F2F7D81F09D
:104C6000C53411F0C536B9F7F801108270E060E084
:104C70000E940AE9F801C083CF911F910F91089516
:104C800070E060E00E940AE9F7CF60E070E0CB01DD
:104C9000F3CFCF92DF92EF92FF926A017B016CDA41
:104CA000882319F0CEDF6B017C01C701B601FF90AC
:104CB000EF90DF90CF900895B0E0A0E0E2E6F6E25A
:104CC0000C9444F420E24F8158856E818D810E94BE
:104CD000C3BAE2E00C9460F463E972E084E690E029
:104CE0000E945AA770E060E08AE090E00E945AA714
:104CF0006AEB72E084E690E00C945AA70E94269832
:104D0000EBCF0F931F93522F2091B2133091B31317
:104D10002817390731F11092A2049093B3138093AE
:104D2000B2138B0130E020E00093E4051093E50519
:104D30002093E6053093E7054093DD055093DE05AB
:104D40008D5E9E4321F410927B041092730482E0E6
:104D50008093560181E08093F40510927A041092BA
:104D600076041F910F910895E0917304E63028F5C1
:104D700081E08E0F809373044091E4055091E50526
:104D80006091E6057091E7052091DD059091DE05C3
:104D900080917B0439E0E39FF0011124E35CFB4F39
:104DA000A091B213B091B313B183A0834283538314
:104DB00064837583268397838087089520E040E08D
:104DC00070E060E08DEE9EE39CCF8CE990E19093E3
:104DD0000A0780930907F2CFCF93DF93C091730442
:104DE000CC23B1F0C150C093730489E0C89FE001A7
:104DF0001124C35CDB4F6A817B812F814E818881C6
:104E000099817FDF888580937B04DF91CF9108951E
:104E1000D5DFFBCFB0E0A0E0E0E1F7E20C9444F492
:104E20008D81282F082E000C330B90915B11921767
:104E3000130609F08CF480935B119E01285F3F4FAD
:104E40004E815F816AE270E080E391E10E942CED87
:104E500010922F1110922E11E2E00C9460F40F9337
:104E60001F93CF93DF938C016F3F19F410925B1166
:104E700060E020915B11862F062E000C990B2817FD
:104E8000190609F014F560935B11C8010E94B3EC98
:104E9000800F911FEC01C01BD10BCB32D1053CF030
:104EA0000197FC012491207C2038D1F3F3CFDD273A
:104EB000AE01B80180E391E10E94D4ECC05DDE4E0A
:104EC000188210922F1110922E11DF91CF911F9105
:104ED0000F910895CF9380913504811109C08CE71B
:104EE0009FE0909375048093740481E0809335046F
:104EF0003BDF20E040E070E060E084EE91E201DF23
:104F0000C1E0C0937B040E94988610927B0464DF0A
:104F1000C0937B0460E086E99BE3A1DF88E79FE024
:104F200090930A0780930907CF9108950F931F93D9
:104F30000E9401BE0091310410913204209133048B
:104F400030913404601B710B820B930B97FD0CC0E6
:104F500089B183FB882780F991E089274A9B826089
:104F6000309B8460809330048091300481709091F4
:104F7000300491FD826090912F04981749F08130A0
:104F800009F148F0823079F0833091F080932F045A
:104F90001F910F910895913079F09230B9F7909167
:104FA0002E049F5F0CC0992339F09330C1F3EECFEC
:104FB0009130A9F3923051F790912E049150909333
:104FC0002E04E4CF992359F3933001F7F5CF4F9294
:104FD0005F926F927F928F929F92AF92BF92CF9289
:104FE000DF92EF92FF921F93CF93DF93CDB7DEB79F
:104FF00028970FB6F894DEBF0FBECDBF0E9401BE4A
:105000006B017C01809112018F3FE1F10E9401BE92
:105010008090220490902304A0902404B090250452
:10502000681979098A099B0997FD2CC080917C1326
:1050300090917D138F5F8F70891721F1E09112019C
:10504000E43008F057C024E0E29FF0011124E65656
:10505000FE4F80819181A281B3818D839E83AF8336
:10506000B88719821A821B821C82AE014F5F5F4F84
:10507000BE016B5F7F4F82E691E00E94B3E08FEF4D
:105080008093120153DF8091300482FF3CC08091F5
:105090002D0481113AC091E090932D048091120764
:1050A00089278093D2051092120783E080935601DE
:1050B000109230040E9401BE6C507E4F8F4F9F4F64
:1050C00060933104709332048093330490933404DA
:1050D00068E873E182E090E00E945AA716E0115060
:1050E000A1F00E94FEA662E070E080E090E00E94E5
:1050F000CEBDF5CF8091180190911901A0911A01B0
:10510000B0911B01AACF10922D0480915506909169
:105110005606A0915706B0915806A7019601281B84
:10512000390B4A0B5B0BDA01C901B7FF05C080914F
:105130007A04882309F4C4C1D701C6018C599F4F52
:10514000AF4FBF4F8093550690935606A0935706D6
:10515000B093580660912E04062E000C770B77FF53
:1051600003C071956195710990912E0480912C0472
:10517000981364C0633008F061C010922E048091CF
:105180002E0480932C04643008F068C08091D2050E
:105190008111E6C08091B2139091B3138D5E9E434E
:1051A00041F480911301882309F4ECC0815080936D
:1051B00013010E947B898090350790903607A0905C
:1051C0003707B090380781110E948889D501C40142
:1051D0003AE0B695A795979587953A95D1F70097B8
:1051E00041E0A407B10520F08FEF9FEFA0E0B0E011
:1051F00096958795209156012111D6C030917A0459
:1052000031118DC18091B2139091B3138D5E9E4385
:1052100009F46CC180917B04811168C180912804DC
:1052200090912904A0912A04B0912B04C81AD90A9C
:10523000EA0AFB0AF7FC68C1C1DD66C1633009F008
:105240009ECF80912E0487FD07C081E0880F880FD4
:1052500080932E0464E093CF8FEFF8CF8091F9050F
:1052600021E030E040E050E0882309F456C080900F
:10527000F5059090F605A090F705B090F80581141B
:105280009104A104B104E9F170E090E080E00E9493
:1052900068ED20E030E040E85EE30E94C9ED2B01BC
:1052A0003C01C701B601681979098A099B090E9466
:1052B00068ED9B01AC01C301B2010E94E3F420E060
:1052C00030E04AE754E40E94C9ED4B015C0120E064
:1052D00030E040EA52E40E94CFF524E630E040E0BE
:1052E00050E087FF12C020E030E040EF51E4C501FC
:1052F000B4010E94CFF52AE030E040E050E087FFA3
:1053000004C021E030E040E050E0C092F505D092CA
:10531000F605E092F705F092F805A0912E040A2E0A
:10532000000CBB0B0E942EF424E030E040E050E083
:105330000E94F7F38091E4059091E505A091E605C0
:10534000B091E705820F931FA41FB51F8093E4055A
:105350009093E505A093E605B093E70510922E041F
:10536000D701C6018856954CAF4FBF4F8093280494
:1053700090932904A0932A04B0932B0481E0809396
:10538000560108CF8CE08093130180912604909100
:105390002704009729F0019790932704809326040F
:1053A00081E08093560105CF009741F0409126049B
:1053B000509127044817590708F024CF80917A04A8
:1053C00081111DC0223038F0243008F44BC0243045
:1053D00011F4109256018091F113811105C081E002
:1053E0008093F1130E94DCBE8091BA139091BB139D
:1053F0000E94B6BE81E08093E00580937A0483E04A
:10540000B3DA81E08093D813E091B213F091B31333
:1054100009951092E00580917A04811127C01092BD
:10542000D2058091B2139091B3138D5E9E4309F023
:10543000F1CE0E9401BEDC01CB018C199D09AE09A1
:10544000BF098090260490902704B12CA12C8816C7
:105450009906AA06BB0608F0D5CE90932704809340
:105460002604D0CE81E080935601B5CF88EB93E13E
:105470000E9498C091E0811101C090E090937A045D
:10548000882369F28091B2139091B3138D5E9E438D
:10549000B9F40E9401BEDC01CB018C199D09AE0953
:1054A000BF09C0902604D0902704F12CE12CC81627
:1054B000D906EA06FB0620F490932704809326047D
:1054C00028960FB6F894DEBF0FBECDBFDF91CF9107
:1054D0001F91FF90EF90DF90CF90BF90AF909F9083
:1054E0008F907F906F905F904F90089548E9C40E21
:1054F0004AE3D41EE11CF11CC0922804D092290476
:10550000E0922A04F0922B0480917A048111D8CF82
:10551000809156018130A1F610925601D1CF0097AB
:1055200009F46DCF43CFCF92DF92EF92FF92CF93EA
:10553000C82F0E9401BE6B017C0124EA30E74DE7D1
:105540005FE36091140170911501809116019091B3
:1055500017010E9464ED87FD18C08AEF90E0A0E07B
:10556000B0E08C0D9D1DAE1DBF1D80932204909355
:105570002304A0932404B0932504C0931201CF9177
:10558000FF90EF90DF90CF90089580E090E0DC01F5
:10559000E8CFCF938091F703811154C01092EF139D
:1055A0001092F0131092F1131092BD131092BC13CD
:1055B0001092BF131092BE131092C11381E080931A
:1055C000C01382E28093C2131092C7131092C613C5
:1055D000EBEDF3E129EE33E18FEF81932E173F07D7
:1055E000E1F7C1E0C093D81326EF34EB3093CE132C
:1055F0002093CD13C093CF131092D0131092D113D8
:1056000090E49093D2131092D31325EF34EB3093A0
:10561000EA132093E9132AE031E03093BB1320937F
:10562000BA139EE19093DF139CE19093E0139BE10A
:105630009093DD138093DC138093DB130E94DCBE18
:10564000C093F70381E08093F60380E39EE090939C
:105650005D1180935C1184E090E090935F118093E2
:105660005E1153985B9A52985A9A3898409A5EDC29
:1056700010922E040E9473B7CF910895FC0180E030
:10568000309749F09491992331F0907C903809F04B
:105690008F5F3196F7CF0895B0E0A0E0E2E5FBE23E
:1056A0000C943CF4EC015B018A01FB01099587FD38
:1056B00010C0C82ED12CF12CE12C2196F801C0820B
:1056C000D182E282F382CE01CDB7DEB7EAE00C945C
:1056D00058F4982F907E903CA9F48F7190E0B0E040
:1056E000A0E06C017D0156E0CC0CDD1CEE1CFF1C23
:1056F0005A95D1F7CE010196F50109958F73C82A05
:105700002296DCCF982F907F903E11F58F7090E01D
:10571000B0E0A0E06C017D0136E0CC0CDD1CEE1C9D
:10572000FF1C3A95D1F7CE010196F50109958F73CB
:10573000C82A46E0CC0CDD1CEE1CFF1C4A95D1F7B4
:10574000CE010296F50109958F73C82A2396B6CF2C
:10575000982F987F903F79F5877090E0B0E0A0E0B7
:105760006C017D0186E0CC0CDD1CEE1CFF1C8A95D3
:10577000D1F7CE010196F50109958F73C82A96E0FD
:10578000CC0CDD1CEE1CFF1C9A95D1F7CE010296C5
:10579000F50109958F73C82A26E0CC0CDD1CEE1CA0
:1057A000FF1C2A95D1F7CE010396F50109958F7359
:1057B000C82A249683CF982F907C903841F4807C1F
:1057C000803869F42196CE01F5010995F8CF8E7FD6
:1057D0008D3F28F02196CE01F5010995F8CFC12C17
:1057E000D12C76016BCF9CE0899F802D112491E014
:1057F000980F9093F5032CE0280F2093FA0530E0E2
:105800002E5F3F4F4091EC134217130619F014F02E
:1058100080E008952091EE139217D0F7662341F0AF
:105820008E5F0E9404C08091FA058E5F0E9404C0C2
:105830008091FA059091EC13891750F32091EE13A3
:105840009091F503291720F31092EF138093F01332
:1058500081E00895ACE0B0E0E0E3FCE20C9440F4B9
:10586000FC0160817181828193816F3F71058105A7
:10587000910509F070F484EB93E101D9E091BC1338
:10588000F091BD133196849190E02C96E6E00C9453
:105890005CF41091EF130091F0132091F6032111A5
:1058A0000FC042EF5DE0602F812F0E9479C190E030
:1058B00080E0180F1093EF130093F0139927E5CFB2
:1058C000E090BC13F090BD1328EB33E13A832983B9
:1058D000212F30E03C832B83202F30E03E832D832B
:1058E00018861F822FEF3FEF3A8729871C861B8679
:1058F0002CEE34E2AE014F5F5F4FBF01C7010E9443
:105900008FB6B70188EB93E10E94C8C08F8198855C
:10591000D0CF4F925F926F927F928F929F92BF9261
:10592000CF92DF92EF92FF920F931F93CF93DF936B
:10593000CDB7DEB728970FB6F894DEBF0FBECDBF48
:105940007C016A014901FB0190818CE0989F800DE8
:105950001124982FF7012081822F880F820F880F42
:105960008093EF139093F0134115510569F1FA827A
:10597000E9827C836B83011120C0AE014B5F5F4FD6
:10598000B401C60189DE6C018D819E81AF81B8852D
:10599000892B8A2B8B2BC1F0CE0105965BDFF7019B
:1059A00080818F5F8083853140F3CE0101960E9414
:1059B000661FE3CFB12C860129C08A01B12C26C015
:1059C000452846284728B1F728960FB6F894DEBF39
:1059D0000FBECDBFDF91CF911F910F91FF90EF9040
:1059E000DF90CF90BF909F908F907F906F905F904F
:1059F0004F900895B39407C0B1102DC00115110543
:105A0000C9F20F5F1F4F01151105A9F2AE014B5FDF
:105A10005F4FB401C60140DE6C014D805E806F8037
:105A200078844114510461047104A9F0F0E24F1626
:105A300051046104710401F3D301C2018D97A109DE
:105A4000B1090297A105B10530F04BE244165104AB
:105A50006104710479F6F7018081482F4B0D5527B9
:105A6000551F4631510534F0853020F0CE010196A6
:105A70000E94661F81E0411451046104710409F41D
:105A800080E0B80EF70180818B0D8083BB2009F484
:105A900097CFBA94AE014B5F5F4FB401C801FCDDF4
:105AA0008C01CE010596D6DEF1CFA3E0B0E0EBE5A8
:105AB000FDE20C9434F44C013B015A011901280118
:105AC00081E080937B044091E4055091E50560916D
:105AD000E6057091E705411551056105710571F005
